:1000000073C08DC08CC0F4C08AC089C088C087C04E
:1000100086C085C084C083C082C081C080C038488B
:100020006068708098A8B0B8C8D0D8304050607070
:100030008090A8C8E030506070808890A8C8E030F8
:100040005060708098A8C8E03050606870808890D8
:10005000A8C8D0D82030404850606870808890A0F0
:10006000A8B02030406080A0B02028304048608098
:10007000A0B02030406080A0B02030404850608068
:10008000A0A8B05050505050505050505050505068
:1000900058585858585858585858606060606060B0
:1000A00060606060686868686868686868707070D8
:1000B00070707070707070707080808080808080D0
:1000C00080808080808080888888888888889090D8
:1000D0009090909090909098989898989898A0A0C8
:1000E000A0A0A0A0A0A0A0A011241FBECFE5D2E098
:1000F000DEBFCDBF10E0A0E6B0E0ECEDF2E002C064
:1001000005900D92A036B107D9F710E0A0E6B0E057
:1001100001C01D92A236B107E1F7A1D0DDC070CFBA
:10012000F89487B3836087BB88B38C7F88BB83EAEE
:100130008ABD81E083BF12BE19BC18BC80E880BFB5
:100140001CBC1FBC1EBC1BBC1DBC80E489BF82E064
:1001500087BD089512BE83B7816083BF1FBC89B776
:10016000806489BF78940895BF92CF92DF92EF9216
:10017000FF920F931F93CF93DF939B01AC0160E03D
:1001800074E284EF90E086D0B22EC32ED42E052FD9
:10019000C1E0D0E081E0E82EF12C1C2F97010C2E5D
:1001A00002C0220F331F0A94E2F740E050E06B2DAB
:1001B0007C2D8D2D902F6ED0215030402F3F31055A
:1001C00041F038F01F5F2196C031D10531F72FEF94
:1001D00030E02EBD80B7807F182B10BFDF91CF910C
:1001E0001F910F91FF90EF90DF90CF90BF900895F7
:1001F0001F920F920FB60F9211248F939F93EF933C
:10020000FF93E0916000F0916100E25EFF4FE491A6
:10021000E9BDE0916000F0916100ED57FF4FE4917E
:10022000E8BD80916000909161000196909361001B
:100230008093600080916000909161008536910507
:1002400020F010926100109260001FBCFF91EF91AE
:100250009F918F910F900FBE0F901F901895BA9A93
:10026000C29820E034E040E951E088B3832788BB9E
:1002700088EE93E0FA013197F1F70197D9F72F5FF4
:10028000253099F74DDF6DED79E080E090E06CDF8F
:1002900061DFFFCFA1E21A2EAA1BBB1BFD010DC01F
:1002A000AA1FBB1FEE1FFF1FA217B307E407F50726
:1002B00020F0A21BB30BE40BF50B661F771F881F02
:1002C000991F1A9469F760957095809590959B0198
:0C02D000AC01BD01CF010895F894FFCFF0
:00000001FF
